:1000000002013202011BE4F520F521E52124C0E5BF
:10001000206480347F500280028002801B75A00023
:100020000521E52170020520E52124C0E52064803A
:10003000347F5002800280E5E4F520F521E521249B
:1000400040E5206480347F50028002800280237467
:10005000FFC39521F5A0E5212403F521E520340017
:10006000F520E5212440E5206480347F50028002A1
:1000700080DDE4F520F521E52124C0E5206480340D
:100080007F500280028002801B75A03F0521E52180
:1000900070020520E52124C0E5206480347F5002F1
:1000A000800280E5E5212401F523E5203400F522D6
:1000B000E4F520F521E52124C0E5206480347F505B
:1000C0000280028002801EE521243FF5A00521E583
:1000D0002170020520E52124C0E5206480347F5092
:1000E00002800280E2E4F520F521E52124C0E5202C
:1000F0006480347F500280028002801B75A000055E
:1001000021E52170020520E52124C0E5206480342A
:100110007F5002800280E502000622020006E4F51C
:10012000D0758124F520F521F522F5231200030274
:05013000000002011EA9
:00000001FF
