:100000000200B48058780179007A007B227D0B7C55
:1000100000120075792C87A075B000752000E5B03E
:10002000B401377422A920780029F987A00520752A
:100030002100E52124E2500280028002800C05218B
:10004000E52124E25002800280F4E52024F65002EB
:100050008002800375200075B00080C22280A689CE
:100060008288838B00EC4D6036E4E0F608A31DBD6A
:10007000FFF31C80F0B800118B00EC4D6021E7F617
:1000800009081DBDFFF41C80F1898288838B00EC78
:100090004D600CE493F608A31DBDFFF31C80F02215
:1000A000E4F5D075812D78207A0DF608DAFC12007F
:0700B000030200000200A0A2
:0B010000C0F9A4B0999282F88090FF33
:00000001FF
