:100000000200BA0200A375275575240175250075F5
:100010009000E4F520F521E5212400E520648034FA
:100020007C5002800280028076759002E52785244C
:1000300083852582F0852483852582E0F526E526C3
:10004000B5270480008035759001759000E4F52295
:10005000F523E52324FBE5226480347F50028002EF
:10006000800280180523E52370020522E52324FB86
:10007000E5226480347F5002800280E80525E52572
:10008000700205247590000521E52170020520E528
:10009000212400E5206480347C50028002808A752F
:1000A000900422020006E4F5D075812878207A08B1
:0D00B000F608DAFC1200030200000200A6B0
:00000001FF
