:100000000200B380438C228D23E5234522600280C9
:10001000028010E52324FFF523E52234FFF522C2F8
:10002000908002D29030CF02800280DDC2CF30803B
:100030000280028006752000752101308102800255
:100040008005E4F520F5212280BB8051E4F520F500
:10005000217590FE75CB0075CA0053C8FCD2ADD295
:10006000AFD2CAE521B40107E520B40002800280C6
:10007000097C067DBD12000380077C097D6F12009C
:1000800003308002800280067520007521013081D6
:100090000280028005E4F520F52180C72280ADE4CE
:1000A000F5D0758124F520F521F522F52312004ABB
:0600B00002000002009FA7
:00000001FF
