:100000000201000200858C268D278C288D29E52988
:100010004528600280028011E52924FFF529E528A2
:1000200034FFF5287590008039792187900525E502
:100030002570020524E52524F6E5246480347F50EC
:10004000028002801DE4F524F5250521E5217002DA
:100050000520E521B4FF07E520B4000280028002FC
:10006000800730CF02800280A5C2CF30800280029C
:10007000800675220075230130810280028005E42C
:10008000F522F523220200068060E4F522F523E440
:10009000F520F5217590FE75CB0475CA0153C8FC97
:1000A000D2ADD2AFD2CAE523B40107E522B4000233
:1000B000800280097C097D6F12000380077C067D29
:1000C000BD120003E4F520F521E4F524F525308088
:1000D00002800280067522007523013081028002B1
:1000E0008005E4F522F52380BD22809EE4F5D075DD
:1000F000812A78207A0AF608DAFC120088020000C9
:030100000200EC0E
:00000001FF
