:1000000002008AE5836003E49322A882E622E58366
:100010006004E4938003A882E6F822E5836004E4A8
:10002000938003A882E6F922E5836004E4938003C9
:10003000A882E6FA22E5836004E4938003A882E6BE
:10004000FB22E5836004E4938003A882E6FC22E5BA
:10005000836004E4938003A882E6FD22E5836004C4
:10006000E4938003A882E6FE22E5836004E49380A3
:1000700003A882E6FF22E4F5D075813378207A1355
:0D008000F608DAFC120224020000020076ED
:10010000B6A0B1A9AE00800A75800475A00175A0E3
:10011000002280F480098D8075A00375A0022280E2
:10012000F5800A85058075A00175A0002280F4285D
:10013000020221752C208A2F8B308C318D32E529DB
:1001400024F8E52834FF40028002800FE52924804E
:10015000FDE5283400FC120121800DE52924B8FDBD
:10016000E5283400FC120121E52FB52A07E530B55A
:100170002B028006500280028049852F2D85302E6B
:10018000E52E452D7002800280028030E52E25325A
:10019000FDE52D3531FCED24FFF582EC34FFF583D0
:1001A00012004F120114E52E24FFF52EE52D34FF29
:1001B000F52DE52E452D7002800280D0AD2C120168
:1001C00014805D852F2D85302EE52E452D70028003
:1001D000028002804BE530C3952EFDE52F952DFC66
:1001E000ECB52A06EDB52B02800650028002801A7B
:1001F000E52E2532FDE52D3531FCED24FFF582ECB1
:1002000034FFF58312004F120114E52E24FFF52E62
:10021000E52D34FFF52DE52E452D7002800280B5C9
:10022000220201330202A6752401752500E4F52699
:10023000F52780080527E52770020526E5272525EF
:10024000F582E5263524F58312000370E7758038C2
:1002500075A00175A000120106E4F520F521E52145
:1002600024F0E52034FF5002800280028035852092
:100270002885212985222A85232BAA26AB27AC2471
:10028000AD251201300523E523700205220521E585
:100290002170020520E52124F0E52034FF50028082
:0902A0000280CB80B42202022787
:00000001FF
