:100000000200ED802C8C358D36800C758CD8758A6D
:10001000F0D28CC28DC28CAC35E536FD153670023F
:100020001535ED24FFEC6480347F4002800280DBD4
:100030002280D20200EA780179007A007B2B7D08C9
:100040007C0012011E753300753404E4F520F5219F
:1000500080287C007D28A820A921E9C333F9E83352
:10006000F8742B29F98702098703120149A703199C
:10007000A7020521E52170020520E533B52007E53B
:1000800034B5210280065002800280C67589017550
:10009000220575230A7524507525A07590007C00F3
:1000A0007D02120003E4F520F5218026742225212B
:1000B000F98790A820A921E9C333F9E833F8742B14
:1000C00029F987040987051200030521E52170023B
:1000D0000520E533B52007E534B52102800650023E
:1000E000800280C875900080FE22020036020167FF
:100100000005000200020005898288838B00EC4D07
:100110006036E4E0F608A31DBDFFF31C80F0B800D4
:10012000118B00EC4D6021E7F609081DBDFFF41CA2
:1001300080F1898288838B00EC4D600CE493F60893
:10014000A31DBDFFF31C80F022C000C001ED8BF0A9
:10015000A4F8A9F0ED8AF0A429F9EC8BF0A429FA0F
:10016000E8FBD001D00022E4F5D075813778207A01
:0B01700017F608DAFC12003302000052
:00000001FF
