:10000000020058898288838B00EC4D6036E4E0F66C
:1000100008A31DBDFFF31C80F0B800118B00EC4D50
:100020006021E7F609081DBDFFF41C80F189828874
:10003000838B00EC4D600CE493F608A31DBDFFF329
:100040001C80F022E4F5D075813178207A11F60811
:0B005000DAFC12010F02000002004465
:100100004142434445464748494A4B4C4D4E2002E4
:1001100002CB780179007A007B227D0F7C001200EF
:100120001975803875A00175A00075808075A001D3
:1001300075A00075B000C2902093028002801379F0
:1001400026878075A00375A002800030930280028C
:1001500080F9209402800280137925878075A0039E
:1001600075A0028000309402800280F92095028000
:100170000280137924878075A00375A00280003067
:100180009502800280F920960280028013792387ED
:100190008075A00375A0028000309602800280F96D
:1001A000209702800280137922878075A00375A0B2
:1001B000028000309702800280F9D290C291209391
:1001C0000280028013792B878075A00375A00280BE
:1001D00000309302800280F920940280028013791B
:1001E0002A878075A00375A00280003094028002E7
:1001F00080F9209502800280137929878075A003F9
:1002000075A0028000309502800280F9209602805D
:100210000280137928878075A00375A002800030C2
:100220009602800280F92097028002801379278746
:100230008075A00375A0028000309702800280F9CB
:10024000D291C2922093028002801275800175A023
:100250000175A0008000309302800280F920940292
:1002600080028013792F878075A00375A00280001B
:10027000309402800280F920950280028013792E4A
:10028000878075A00375A0028000309502800280EF
:10029000F920960280028013792D878075A003755E
:1002A000A0028000309602800280F920970280022E
:1002B0008013792C878075A00375A0028000309789
:0E02C00002800280F9D292020136220201125F
:00000001FF
