:100000000200F7E5836003E49322A882E622E583F9
:100010006004E4938003A882E6F822E5836004E4A8
:10002000938003A882E6F922E5836004E4938003C9
:10003000A882E6FA22E5836004E4938003A882E6BE
:10004000FB22E5836004E4938003A882E6FC22E5BA
:10005000836004E4938003A882E6FD22E5836004C4
:10006000E4938003A882E6FE22E5836004E49380A3
:1000700003A882E6FF2280108D998D308000309990
:1000800002800280F9C2992280EE805578017900C1
:100090007A007B227D0C7C001201227C007D2212E2
:1000A000014D8A2E8B2F758780E4F520F521801C69
:1000B00074222521F987E075988874222521F98713
:1000C000051200760521E52170020520E52EB520F8
:1000D00007E52FB5210280065002800280D280FE03
:1000E0002280A9E4F5D075813178207A11F608DAFA
:0A00F000FC12008A0200000200E387
:10010000B8A0B1A9AE20A0ACA6B9A000898288830E
:100110008B00EC4D6036E4E0F608A31DBDFFF31C38
:1001200080F0B800118B00EC4D6021E7F609081D46
:10013000BDFFF41C80F1898288838B00EC4D600C3C
:10014000E493F608A31DBDFFF31C80F022C006C097
:1001500007AE04AF058E838F82120003A3AE83AF78
:100160008270F2EFC39505FBEE9504FAEB24FFFBDA
:09017000EA34FFFAD007D00622A0
:00000001FF
